{
  "contractName": "CreateNewPolicy",
  "abi": [
    {
      "inputs": [],
      "stateMutability": "nonpayable",
      "type": "constructor"
    },
    {
      "inputs": [],
      "name": "policyAdmin",
      "outputs": [
        {
          "internalType": "address",
          "name": "",
          "type": "address"
        }
      ],
      "stateMutability": "view",
      "type": "function",
      "constant": true
    },
    {
      "inputs": [
        {
          "internalType": "uint256",
          "name": "_payout",
          "type": "uint256"
        },
        {
          "internalType": "uint256",
          "name": "price",
          "type": "uint256"
        },
        {
          "internalType": "uint256",
          "name": "_coverageDuration",
          "type": "uint256"
        },
        {
          "internalType": "uint256",
          "name": "_approvedConditions",
          "type": "uint256"
        }
      ],
      "name": "createPolicy",
      "outputs": [],
      "stateMutability": "nonpayable",
      "type": "function"
    }
  ],
  "bytecode": "0x6080604052600160025534801561001557600080fd5b5033600360006101000a81548173ffffffffffffffffffffffffffffffffffffffff021916908373ffffffffffffffffffffffffffffffffffffffff1602179055506104f4806100666000396000f3fe608060405234801561001057600080fd5b50600436106100365760003560e01c806358e518961461003b578063690a2d3414610059575b600080fd5b610043610075565b60405161005091906103d8565b60405180910390f35b610073600480360381019061006e9190610366565b61009b565b005b600360009054906101000a900473ffffffffffffffffffffffffffffffffffffffff1681565b600360009054906101000a900473ffffffffffffffffffffffffffffffffffffffff1673ffffffffffffffffffffffffffffffffffffffff163373ffffffffffffffffffffffffffffffffffffffff16146100f557600080fd5b60008067ffffffffffffffff811115610137577f4e487b7100000000000000000000000000000000000000000000000000000000600052604160045260246000fd5b6040519080825280602002602001820160405280156101655781602001602082028036833780820191505090505b5090506040518060e0016040528060025481526020013373ffffffffffffffffffffffffffffffffffffffff1681526020018681526020018581526020018481526020018381526020018281525060008060025481526020019081526020016000206000820151816000015560208201518160010160006101000a81548173ffffffffffffffffffffffffffffffffffffffff021916908373ffffffffffffffffffffffffffffffffffffffff16021790555060408201518160020155606082015181600301556080820151816004015560a0820151816005015560c082015181600601908051906020019061025c9291906102e7565b50905050600160003373ffffffffffffffffffffffffffffffffffffffff1673ffffffffffffffffffffffffffffffffffffffff1681526020019081526020016000206002549080600181540180825580915050600190039060005260206000200160009091909190915055600260008154809291906102db9061042f565b91905055505050505050565b828054828255906000526020600020908101928215610323579160200282015b82811115610322578251825591602001919060010190610307565b5b5090506103309190610334565b5090565b5b8082111561034d576000816000905550600101610335565b5090565b600081359050610360816104a7565b92915050565b6000806000806080858703121561037c57600080fd5b600061038a87828801610351565b945050602061039b87828801610351565b93505060406103ac87828801610351565b92505060606103bd87828801610351565b91505092959194509250565b6103d2816103f3565b82525050565b60006020820190506103ed60008301846103c9565b92915050565b60006103fe82610405565b9050919050565b600073ffffffffffffffffffffffffffffffffffffffff82169050919050565b6000819050919050565b600061043a82610425565b91507fffffffffffffffffffffffffffffffffffffffffffffffffffffffffffffffff82141561046d5761046c610478565b5b600182019050919050565b7f4e487b7100000000000000000000000000000000000000000000000000000000600052601160045260246000fd5b6104b081610425565b81146104bb57600080fd5b5056fea26469706673582212209d8619a06d3b2a4f899c1cbf14ab0b898534867fb4639dda85e5078b6d4cb84f64736f6c63430008000033",
  "immutableReferences": {},
  "source": "pragma solidity ^0.8.0;\n\ncontract CreateNewPolicy {\n\n    struct Policy {\n        uint256 id;\n        address policyAdmin;\n        uint256 payout;\n        uint256 price;\n        uint256 coverageDuration;\n        uint256 approvedConditions;\n        uint256[] applicationIds;\n    }\n\n    mapping(uint256 => Policy) private policies;\n    mapping(address => uint256[]) private adminPolicies;\n    uint256 private nextPolicyId = 1;\n    address public policyAdmin;\n\n    constructor() {\n        policyAdmin = msg.sender;\n    }\n\n    function createPolicy(uint256 _payout, uint256 price, uint256 _coverageDuration, uint256 _approvedConditions) external onlyPolicyAdmin() {\n        uint256[] memory applicationIds = new uint256[](0);\n        policies[nextPolicyId] = Policy(\n            nextPolicyId,\n            msg.sender,\n            _payout,\n            price,\n            _coverageDuration,\n            _approvedConditions,\n            applicationIds\n        );\n        adminPolicies[msg.sender].push(nextPolicyId);\n        nextPolicyId++;\n    }\n\n    modifier onlyPolicyAdmin() {\n        require(msg.sender == policyAdmin);\n\n        _;\n    }\n  \n}",
  "sourcePath": "/home/lilica/Documents/EthereumInsurance/contracts/CreateNewPolicy.sol",
  "compiler": {
    "name": "solc",
    "version": "0.8.0+commit.c7dfd78e.Emscripten.clang"
  },
  "schemaVersion": "3.4.3",
  "updatedAt": "2021-12-10T02:45:53.523Z",
  "networkType": "ethereum",
  "devdoc": {
    "kind": "dev",
    "methods": {},
    "version": 1
  },
  "userdoc": {
    "kind": "user",
    "methods": {},
    "version": 1
  }
}