{
  "contractName": "EthereumInsurance",
  "abi": [
    {
      "inputs": [],
      "stateMutability": "nonpayable",
      "type": "constructor"
    },
    {
      "anonymous": false,
      "inputs": [
        {
          "indexed": false,
          "internalType": "uint256",
          "name": "claimId",
          "type": "uint256"
        }
      ],
      "name": "claimIsValid",
      "type": "event"
    },
    {
      "anonymous": false,
      "inputs": [
        {
          "indexed": false,
          "internalType": "address",
          "name": "policyAdmin",
          "type": "address"
        },
        {
          "indexed": false,
          "internalType": "uint256",
          "name": "payout",
          "type": "uint256"
        },
        {
          "indexed": false,
          "internalType": "uint256",
          "name": "paymentId",
          "type": "uint256"
        },
        {
          "indexed": false,
          "internalType": "uint256",
          "name": "date",
          "type": "uint256"
        }
      ],
      "name": "paidOut",
      "type": "event"
    },
    {
      "inputs": [
        {
          "internalType": "uint256",
          "name": "",
          "type": "uint256"
        }
      ],
      "name": "certificateIdToPolicy",
      "outputs": [
        {
          "internalType": "uint256",
          "name": "",
          "type": "uint256"
        }
      ],
      "stateMutability": "view",
      "type": "function",
      "constant": true
    },
    {
      "inputs": [],
      "name": "customer",
      "outputs": [
        {
          "internalType": "address",
          "name": "",
          "type": "address"
        }
      ],
      "stateMutability": "view",
      "type": "function",
      "constant": true
    },
    {
      "inputs": [],
      "name": "policyAdmin",
      "outputs": [
        {
          "internalType": "address",
          "name": "",
          "type": "address"
        }
      ],
      "stateMutability": "view",
      "type": "function",
      "constant": true
    },
    {
      "inputs": [
        {
          "internalType": "bytes32",
          "name": "",
          "type": "bytes32"
        }
      ],
      "name": "validClaims",
      "outputs": [
        {
          "internalType": "bool",
          "name": "",
          "type": "bool"
        }
      ],
      "stateMutability": "view",
      "type": "function",
      "constant": true
    }
  ],
  "bytecode": "0x60806040526001600655600160075534801561001a57600080fd5b5033600960006101000a81548173ffffffffffffffffffffffffffffffffffffffff021916908373ffffffffffffffffffffffffffffffffffffffff1602179055506103218061006b6000396000f3fe608060405234801561001057600080fd5b506004361061004c5760003560e01c80632804b2c01461005157806331ee54951461006f57806358e518961461009f5780637e9837d9146100bd575b600080fd5b6100596100ed565b604051610066919061021a565b60405180910390f35b6100896004803603810190610084919061019b565b610113565b6040516100969190610235565b60405180910390f35b6100a7610133565b6040516100b4919061021a565b60405180910390f35b6100d760048036038101906100d291906101c4565b610159565b6040516100e49190610250565b60405180910390f35b600860009054906101000a900473ffffffffffffffffffffffffffffffffffffffff1681565b60046020528060005260406000206000915054906101000a900460ff1681565b600960009054906101000a900473ffffffffffffffffffffffffffffffffffffffff1681565b60056020528060005260406000206000915090505481565b600081359050610180816102bd565b92915050565b600081359050610195816102d4565b92915050565b6000602082840312156101ad57600080fd5b60006101bb84828501610171565b91505092915050565b6000602082840312156101d657600080fd5b60006101e484828501610186565b91505092915050565b6101f68161026b565b82525050565b6102058161027d565b82525050565b610214816102b3565b82525050565b600060208201905061022f60008301846101ed565b92915050565b600060208201905061024a60008301846101fc565b92915050565b6000602082019050610265600083018461020b565b92915050565b600061027682610293565b9050919050565b60008115159050919050565b6000819050919050565b600073ffffffffffffffffffffffffffffffffffffffff82169050919050565b6000819050919050565b6102c681610289565b81146102d157600080fd5b50565b6102dd816102b3565b81146102e857600080fd5b5056fea264697066735822122031537484ba9969fbea6c86e39be386cdd2caed1313eb16d0bc49b535b0e9c59864736f6c63430008000033",
  "immutableReferences": {},
  "source": "pragma solidity ^0.8.0;\n\n//import \"@openzeppelin/contracts/token/ERC721/ERC721.sol\";\n//import \"@openzeppelin/contracts/access/Ownable.sol\";\n//import \"@openzeppelin/contracts/utils/math/SafeMath.sol\";\n//import \"@openzeppelin/contracts/utils/Address.sol\";\nimport './CreateNewPolicy.sol';\n\ncontract EthereumInsurance{\n\n\n    struct Policy {\n        uint id;\n        address policyAdmin;\n        uint256 payout;\n        uint256 approvedDiagnoses;\n        uint256 approvedDuration;\n        uint256 approvedClinicOrHospital;\n        uint256 newClaimId;\n        uint[] claimIds;\n        bool approveClaim;\n    }\n\n    struct Claim {\n        uint256 id;\n        address customerAddress;\n        uint256 diagnosis;\n        uint256 coverageDuration;\n        uint256 clinicOrHospitalName; //also applies to hospital name\n        uint256 visitDuration; //date of clinic visit, also applies to hospitalisation duration\n        uint256 billingAmount;\n        uint256 dateOfClaim;\n        //uint[] newClaimIds;\n    }\n\n    mapping (uint => Policy) private policies;\n    mapping (uint => Claim) private claims;\n    mapping(address => uint[]) private adminPolicies;\n    mapping(address => uint[]) private customerClaims;\n    mapping (bytes32 => bool) public validClaims;\n    mapping (uint256 => uint256) public certificateIdToPolicy;\n    uint private nextPolicyId = 1;\n    uint private nextClaimId = 1;\n\n    address public customer;\n    address public policyAdmin;\n\n    event claimIsValid(uint claimId);\n    event paidOut(address policyAdmin, uint payout, uint paymentId, uint date);\n\n    constructor() {\n        policyAdmin = msg.sender;\n    }\n    \n\n    modifier onlyPolicyAdmin(address _policyAdmin) {\n        require(msg.sender == policyAdmin, 'You are not authorised to approve claim payouts');\n        _;\n    }\n\n\n}",
  "sourcePath": "/home/lilica/Documents/EthereumInsurance/contracts/EthereumInsurance.sol",
  "compiler": {
    "name": "solc",
    "version": "0.8.0+commit.c7dfd78e.Emscripten.clang"
  },
  "schemaVersion": "3.4.3",
  "updatedAt": "2021-12-10T02:45:53.547Z",
  "networkType": "ethereum",
  "devdoc": {
    "kind": "dev",
    "methods": {},
    "version": 1
  },
  "userdoc": {
    "kind": "user",
    "methods": {},
    "version": 1
  }
}