{
  "contractName": "PurchasePolicy",
  "abi": [
    {
      "inputs": [],
      "stateMutability": "nonpayable",
      "type": "constructor"
    },
    {
      "anonymous": false,
      "inputs": [
        {
          "indexed": false,
          "internalType": "uint256",
          "name": "applicationId",
          "type": "uint256"
        }
      ],
      "name": "applicationApproved",
      "type": "event"
    },
    {
      "anonymous": false,
      "inputs": [
        {
          "indexed": false,
          "internalType": "uint256",
          "name": "applicationId",
          "type": "uint256"
        },
        {
          "indexed": false,
          "internalType": "uint256",
          "name": "price",
          "type": "uint256"
        },
        {
          "indexed": false,
          "internalType": "uint256",
          "name": "date",
          "type": "uint256"
        }
      ],
      "name": "policyPurchased",
      "type": "event"
    },
    {
      "inputs": [],
      "name": "customer",
      "outputs": [
        {
          "internalType": "address",
          "name": "",
          "type": "address"
        }
      ],
      "stateMutability": "view",
      "type": "function",
      "constant": true
    },
    {
      "inputs": [],
      "name": "policyAdmin",
      "outputs": [
        {
          "internalType": "address",
          "name": "",
          "type": "address"
        }
      ],
      "stateMutability": "view",
      "type": "function",
      "constant": true
    }
  ],
  "bytecode": "0x60806040526001600455600160055534801561001a57600080fd5b5033600760006101000a81548173ffffffffffffffffffffffffffffffffffffffff021916908373ffffffffffffffffffffffffffffffffffffffff1602179055506101558061006b6000396000f3fe608060405234801561001057600080fd5b50600436106100365760003560e01c80632804b2c01461003b57806358e5189614610059575b600080fd5b610043610077565b60405161005091906100d2565b60405180910390f35b61006161009d565b60405161006e91906100d2565b60405180910390f35b600660009054906101000a900473ffffffffffffffffffffffffffffffffffffffff1681565b600760009054906101000a900473ffffffffffffffffffffffffffffffffffffffff1681565b6100cc816100ed565b82525050565b60006020820190506100e760008301846100c3565b92915050565b60006100f8826100ff565b9050919050565b600073ffffffffffffffffffffffffffffffffffffffff8216905091905056fea2646970667358221220c03401264abf415974f0d8a37dd9d33d60b7c1d80af394b71297591a9035fde964736f6c63430008000033",
  "immutableReferences": {},
  "source": "pragma solidity ^0.8.0;\npragma experimental ABIEncoderV2;\n\nimport './CreateNewPolicy.sol';\n\ncontract PurchasePolicy {\n\n   struct Policy {\n        uint256 id;\n        address policyAdmin;\n        uint256 payout;\n        uint256 price;\n        uint256 coverageDuration;\n        uint256 newApplicationId;\n        uint256[] applicationIds;\n        bool approveApplication;\n    }\n\n    struct Application {\n        uint256 id;\n        address customer;\n        uint256 date;\n        uint256 preExistingConditions;\n    }\n\n    mapping (uint256 => Policy) private policies;\n    mapping (uint256 => Application) private applications;\n    mapping(address => uint[]) private adminPolicies;\n    mapping(address => uint[]) private customerApplications;\n    //mapping (bytes32 => bool) public approvedConditions;\n    uint256 private nextPolicyId = 1;\n    uint256 private nextApplicationId = 1;\n\n    address public customer;\n    address public policyAdmin;\n\n    event applicationApproved(uint256 applicationId);\n    event policyPurchased(uint256 applicationId, uint256 price, uint256 date);\n\n    constructor() {\n        policyAdmin = msg.sender;\n    }\n\n\n}",
  "sourcePath": "/home/lilica/Documents/EthereumInsurance/contracts/PurchasePolicy.sol",
  "compiler": {
    "name": "solc",
    "version": "0.8.0+commit.c7dfd78e.Emscripten.clang"
  },
  "schemaVersion": "3.4.3",
  "updatedAt": "2021-12-10T02:45:53.552Z",
  "networkType": "ethereum",
  "devdoc": {
    "kind": "dev",
    "methods": {},
    "version": 1
  },
  "userdoc": {
    "kind": "user",
    "methods": {},
    "version": 1
  }
}